{
  "contractName": "Decfundme",
  "abi": [
    {
      "anonymous": false,
      "inputs": [
        {
          "indexed": false,
          "internalType": "uint256",
          "name": "id",
          "type": "uint256"
        },
        {
          "indexed": false,
          "internalType": "string",
          "name": "imageHash",
          "type": "string"
        },
        {
          "indexed": false,
          "internalType": "string",
          "name": "name",
          "type": "string"
        },
        {
          "indexed": false,
          "internalType": "string",
          "name": "title",
          "type": "string"
        },
        {
          "indexed": false,
          "internalType": "string",
          "name": "description",
          "type": "string"
        },
        {
          "indexed": false,
          "internalType": "uint256",
          "name": "amountRequested",
          "type": "uint256"
        },
        {
          "indexed": false,
          "internalType": "uint256",
          "name": "amountFunded",
          "type": "uint256"
        },
        {
          "indexed": false,
          "internalType": "address payable",
          "name": "author",
          "type": "address"
        }
      ],
      "name": "PostCreated",
      "type": "event"
    },
    {
      "anonymous": false,
      "inputs": [
        {
          "indexed": false,
          "internalType": "uint256",
          "name": "id",
          "type": "uint256"
        },
        {
          "indexed": false,
          "internalType": "string",
          "name": "imageHash",
          "type": "string"
        },
        {
          "indexed": false,
          "internalType": "string",
          "name": "name",
          "type": "string"
        },
        {
          "indexed": false,
          "internalType": "string",
          "name": "title",
          "type": "string"
        },
        {
          "indexed": false,
          "internalType": "string",
          "name": "description",
          "type": "string"
        },
        {
          "indexed": false,
          "internalType": "uint256",
          "name": "amountRequested",
          "type": "uint256"
        },
        {
          "indexed": false,
          "internalType": "uint256",
          "name": "amountFunded",
          "type": "uint256"
        },
        {
          "indexed": false,
          "internalType": "address payable",
          "name": "author",
          "type": "address"
        }
      ],
      "name": "PostFunding",
      "type": "event"
    },
    {
      "constant": true,
      "inputs": [],
      "name": "name",
      "outputs": [
        {
          "internalType": "string",
          "name": "",
          "type": "string"
        }
      ],
      "payable": false,
      "stateMutability": "view",
      "type": "function"
    },
    {
      "constant": true,
      "inputs": [],
      "name": "postCount",
      "outputs": [
        {
          "internalType": "uint256",
          "name": "",
          "type": "uint256"
        }
      ],
      "payable": false,
      "stateMutability": "view",
      "type": "function"
    },
    {
      "constant": true,
      "inputs": [
        {
          "internalType": "uint256",
          "name": "",
          "type": "uint256"
        }
      ],
      "name": "posts",
      "outputs": [
        {
          "internalType": "uint256",
          "name": "id",
          "type": "uint256"
        },
        {
          "internalType": "string",
          "name": "imageHash",
          "type": "string"
        },
        {
          "internalType": "string",
          "name": "name",
          "type": "string"
        },
        {
          "internalType": "string",
          "name": "title",
          "type": "string"
        },
        {
          "internalType": "string",
          "name": "description",
          "type": "string"
        },
        {
          "internalType": "uint256",
          "name": "amountRequested",
          "type": "uint256"
        },
        {
          "internalType": "uint256",
          "name": "amountFunded",
          "type": "uint256"
        },
        {
          "internalType": "address payable",
          "name": "author",
          "type": "address"
        }
      ],
      "payable": false,
      "stateMutability": "view",
      "type": "function"
    },
    {
      "constant": false,
      "inputs": [
        {
          "internalType": "string",
          "name": "_imageHash",
          "type": "string"
        },
        {
          "internalType": "string",
          "name": "_name",
          "type": "string"
        },
        {
          "internalType": "string",
          "name": "_title",
          "type": "string"
        },
        {
          "internalType": "string",
          "name": "_description",
          "type": "string"
        },
        {
          "internalType": "uint256",
          "name": "_amountRequested",
          "type": "uint256"
        }
      ],
      "name": "uploadPost",
      "outputs": [],
      "payable": false,
      "stateMutability": "nonpayable",
      "type": "function"
    },
    {
      "constant": false,
      "inputs": [
        {
          "internalType": "uint256",
          "name": "_id",
          "type": "uint256"
        }
      ],
      "name": "fundAPosting",
      "outputs": [],
      "payable": true,
      "stateMutability": "payable",
      "type": "function"
    }
  ],
  "bytecode": "0x60806040526040518060400160405280600981526020017f44656366756e646d65000000000000000000000000000000000000000000000081525060009080519060200190620000519291906200006b565b5060006001553480156200006457600080fd5b506200011a565b828054600181600116156101000203166002900490600052602060002090601f016020900481019282601f10620000ae57805160ff1916838001178555620000df565b82800160010185558215620000df579182015b82811115620000de578251825591602001919060010190620000c1565b5b509050620000ee9190620000f2565b5090565b6200011791905b8082111562000113576000816000905550600101620000f9565b5090565b90565b61188f806200012a6000396000f3fe60806040526004361061004a5760003560e01c806306fdde031461004f5780630b1e7f83146100df57806317906c2e1461031f5780633026e8291461034a5780633b37c01814610378575b600080fd5b34801561005b57600080fd5b5061006461060f565b6040518080602001828103825283818151815260200191508051906020019080838360005b838110156100a4578082015181840152602081019050610089565b50505050905090810190601f1680156100d15780820380516001836020036101000a031916815260200191505b509250505060405180910390f35b3480156100eb57600080fd5b506101186004803603602081101561010257600080fd5b81019080803590602001909291905050506106ad565b60405180898152602001806020018060200180602001806020018881526020018781526020018673ffffffffffffffffffffffffffffffffffffffff1673ffffffffffffffffffffffffffffffffffffffff16815260200185810385528c818151815260200191508051906020019080838360005b838110156101a857808201518184015260208101905061018d565b50505050905090810190601f1680156101d55780820380516001836020036101000a031916815260200191505b5085810384528b818151815260200191508051906020019080838360005b8381101561020e5780820151818401526020810190506101f3565b50505050905090810190601f16801561023b5780820380516001836020036101000a031916815260200191505b5085810383528a818151815260200191508051906020019080838360005b83811015610274578082015181840152602081019050610259565b50505050905090810190601f1680156102a15780820380516001836020036101000a031916815260200191505b50858103825289818151815260200191508051906020019080838360005b838110156102da5780820151818401526020810190506102bf565b50505050905090810190601f1680156103075780820380516001836020036101000a031916815260200191505b509c5050505050505050505050505060405180910390f35b34801561032b57600080fd5b50610334610975565b6040518082815260200191505060405180910390f35b6103766004803603602081101561036057600080fd5b810190808035906020019092919050505061097b565b005b34801561038457600080fd5b5061060d600480360360a081101561039b57600080fd5b81019080803590602001906401000000008111156103b857600080fd5b8201836020820111156103ca57600080fd5b803590602001918460018302840111640100000000831117156103ec57600080fd5b91908080601f016020809104026020016040519081016040528093929190818152602001838380828437600081840152601f19601f8201169050808301925050505050505091929192908035906020019064010000000081111561044f57600080fd5b82018360208201111561046157600080fd5b8035906020019184600183028401116401000000008311171561048357600080fd5b91908080601f016020809104026020016040519081016040528093929190818152602001838380828437600081840152601f19601f820116905080830192505050505050509192919290803590602001906401000000008111156104e657600080fd5b8201836020820111156104f857600080fd5b8035906020019184600183028401116401000000008311171561051a57600080fd5b91908080601f016020809104026020016040519081016040528093929190818152602001838380828437600081840152601f19601f8201169050808301925050505050505091929192908035906020019064010000000081111561057d57600080fd5b82018360208201111561058f57600080fd5b803590602001918460018302840111640100000000831117156105b157600080fd5b91908080601f016020809104026020016040519081016040528093929190818152602001838380828437600081840152601f19601f820116905080830192505050505050509192919290803590602001909291905050506110c2565b005b60008054600181600116156101000203166002900480601f0160208091040260200160405190810160405280929190818152602001828054600181600116156101000203166002900480156106a55780601f1061067a576101008083540402835291602001916106a5565b820191906000526020600020905b81548152906001019060200180831161068857829003601f168201915b505050505081565b6002602052806000526040600020600091509050806000015490806001018054600181600116156101000203166002900480601f01602080910402602001604051908101604052809291908181526020018280546001816001161561010002031660029004801561075f5780601f106107345761010080835404028352916020019161075f565b820191906000526020600020905b81548152906001019060200180831161074257829003601f168201915b505050505090806002018054600181600116156101000203166002900480601f0160208091040260200160405190810160405280929190818152602001828054600181600116156101000203166002900480156107fd5780601f106107d2576101008083540402835291602001916107fd565b820191906000526020600020905b8154815290600101906020018083116107e057829003601f168201915b505050505090806003018054600181600116156101000203166002900480601f01602080910402602001604051908101604052809291908181526020018280546001816001161561010002031660029004801561089b5780601f106108705761010080835404028352916020019161089b565b820191906000526020600020905b81548152906001019060200180831161087e57829003601f168201915b505050505090806004018054600181600116156101000203166002900480601f0160208091040260200160405190810160405280929190818152602001828054600181600116156101000203166002900480156109395780601f1061090e57610100808354040283529160200191610939565b820191906000526020600020905b81548152906001019060200180831161091c57829003601f168201915b5050505050908060050154908060060154908060070160009054906101000a900473ffffffffffffffffffffffffffffffffffffffff16905088565b60015481565b8060008111801561098e57506001548111155b610a00576040517f08c379a00000000000000000000000000000000000000000000000000000000081526004018080602001828103825260138152602001807f506f737420646f6573206e6f742065786973740000000000000000000000000081525060200191505060405180910390fd5b610a08611733565b600260008481526020019081526020016000206040518061010001604052908160008201548152602001600182018054600181600116156101000203166002900480601f016020809104026020016040519081016040528092919081815260200182805460018160011615610100020316600290048015610aca5780601f10610a9f57610100808354040283529160200191610aca565b820191906000526020600020905b815481529060010190602001808311610aad57829003601f168201915b50505050508152602001600282018054600181600116156101000203166002900480601f016020809104026020016040519081016040528092919081815260200182805460018160011615610100020316600290048015610b6c5780601f10610b4157610100808354040283529160200191610b6c565b820191906000526020600020905b815481529060010190602001808311610b4f57829003601f168201915b50505050508152602001600382018054600181600116156101000203166002900480601f016020809104026020016040519081016040528092919081815260200182805460018160011615610100020316600290048015610c0e5780601f10610be357610100808354040283529160200191610c0e565b820191906000526020600020905b815481529060010190602001808311610bf157829003601f168201915b50505050508152602001600482018054600181600116156101000203166002900480601f016020809104026020016040519081016040528092919081815260200182805460018160011615610100020316600290048015610cb05780601f10610c8557610100808354040283529160200191610cb0565b820191906000526020600020905b815481529060010190602001808311610c9357829003601f168201915b5050505050815260200160058201548152602001600682015481526020016007820160009054906101000a900473ffffffffffffffffffffffffffffffffffffffff1673ffffffffffffffffffffffffffffffffffffffff1673ffffffffffffffffffffffffffffffffffffffff1681525050905060008160e0015190508073ffffffffffffffffffffffffffffffffffffffff166108fc349081150290604051600060405180830381858888f19350505050158015610d74573d6000803e3d6000fd5b50348260c00151018260c00181815250508160026000868152602001908152602001600020600082015181600001556020820151816001019080519060200190610dbf92919061178e565b506040820151816002019080519060200190610ddc92919061178e565b506060820151816003019080519060200190610df992919061178e565b506080820151816004019080519060200190610e1692919061178e565b5060a0820151816005015560c0820151816006015560e08201518160070160006101000a81548173ffffffffffffffffffffffffffffffffffffffff021916908373ffffffffffffffffffffffffffffffffffffffff1602179055509050507f3727f73a4d482557aac054031e52c68d126ddeccc89f2965674418cfd3823d998483602001518460400151856060015186608001518760a001518860c001518860405180898152602001806020018060200180602001806020018881526020018781526020018673ffffffffffffffffffffffffffffffffffffffff1673ffffffffffffffffffffffffffffffffffffffff16815260200185810385528c818151815260200191508051906020019080838360005b83811015610f46578082015181840152602081019050610f2b565b50505050905090810190601f168015610f735780820380516001836020036101000a031916815260200191505b5085810384528b818151815260200191508051906020019080838360005b83811015610fac578082015181840152602081019050610f91565b50505050905090810190601f168015610fd95780820380516001836020036101000a031916815260200191505b5085810383528a818151815260200191508051906020019080838360005b83811015611012578082015181840152602081019050610ff7565b50505050905090810190601f16801561103f5780820380516001836020036101000a031916815260200191505b50858103825289818151815260200191508051906020019080838360005b8381101561107857808201518184015260208101905061105d565b50505050905090810190601f1680156110a55780820380516001836020036101000a031916815260200191505b509c5050505050505050505050505060405180910390a150505050565b8484848484600085511161113e576040517f08c379a000000000000000000000000000000000000000000000000000000000815260040180806020018281038252601a8152602001807f496d61676520686173682063616e6e6f7420626520656d70747900000000000081525060200191505060405180910390fd5b60008451116111b5576040517f08c379a00000000000000000000000000000000000000000000000000000000081526004018080602001828103825260148152602001807f4e616d652063616e6e6f7420626520656d70747900000000000000000000000081525060200191505060405180910390fd5b600083511161122c576040517f08c379a00000000000000000000000000000000000000000000000000000000081526004018080602001828103825260158152602001807f5469746c652063616e6e6f7420626520656d707479000000000000000000000081525060200191505060405180910390fd5b60008251116112a3576040517f08c379a000000000000000000000000000000000000000000000000000000000815260040180806020018281038252601b8152602001807f4465736372697074696f6e2063616e6e6f7420626520656d707479000000000081525060200191505060405180910390fd5b600081116112fc576040517f08c379a00000000000000000000000000000000000000000000000000000000081526004018080602001828103825260278152602001806118346027913960400191505060405180910390fd5b600073ffffffffffffffffffffffffffffffffffffffff163373ffffffffffffffffffffffffffffffffffffffff16141561139f576040517f08c379a00000000000000000000000000000000000000000000000000000000081526004018080602001828103825260178152602001807f416464726573732063616e6e6f7420626520656d70747900000000000000000081525060200191505060405180910390fd5b60016000815480929190600101919050555060405180610100016040528060015481526020018b81526020018a8152602001898152602001888152602001878152602001600081526020013373ffffffffffffffffffffffffffffffffffffffff1681525060026000600154815260200190815260200160002060008201518160000155602082015181600101908051906020019061143f92919061178e565b50604082015181600201908051906020019061145c92919061178e565b50606082015181600301908051906020019061147992919061178e565b50608082015181600401908051906020019061149692919061178e565b5060a0820151816005015560c0820151816006015560e08201518160070160006101000a81548173ffffffffffffffffffffffffffffffffffffffff021916908373ffffffffffffffffffffffffffffffffffffffff1602179055509050507f2b14a46933c8846cbd46953c1857a9861342b5c84cef53f1ff6ffd2d5b9fe67f6001548b8b8b8b8b60003360405180898152602001806020018060200180602001806020018881526020018781526020018673ffffffffffffffffffffffffffffffffffffffff1673ffffffffffffffffffffffffffffffffffffffff16815260200185810385528c818151815260200191508051906020019080838360005b838110156115b1578082015181840152602081019050611596565b50505050905090810190601f1680156115de5780820380516001836020036101000a031916815260200191505b5085810384528b818151815260200191508051906020019080838360005b838110156116175780820151818401526020810190506115fc565b50505050905090810190601f1680156116445780820380516001836020036101000a031916815260200191505b5085810383528a818151815260200191508051906020019080838360005b8381101561167d578082015181840152602081019050611662565b50505050905090810190601f1680156116aa5780820380516001836020036101000a031916815260200191505b50858103825289818151815260200191508051906020019080838360005b838110156116e35780820151818401526020810190506116c8565b50505050905090810190601f1680156117105780820380516001836020036101000a031916815260200191505b509c5050505050505050505050505060405180910390a150505050505050505050565b60405180610100016040528060008152602001606081526020016060815260200160608152602001606081526020016000815260200160008152602001600073ffffffffffffffffffffffffffffffffffffffff1681525090565b828054600181600116156101000203166002900490600052602060002090601f016020900481019282601f106117cf57805160ff19168380011785556117fd565b828001600101855582156117fd579182015b828111156117fc5782518255916020019190600101906117e1565b5b50905061180a919061180e565b5090565b61183091905b8082111561182c576000816000905550600101611814565b5090565b9056fe416d6f756e7420726571756573746564206d7573742062652067726561746572207468616e2030a265627a7a72315820182b8b441fda7a1d97a03cf0e11d49e55683c4bdfdf9aecbe483368c99ac0a3e64736f6c63430005100032",
  "source": "// SPDX-License-Identifier: MIT\npragma solidity ^0.5.16;\n\ncontract Decfundme {\n    string public name = \"Decfundme\";\n    uint256 public postCount = 0;\n    // Create fund me\n    mapping(uint256 => Post) public posts;\n\n    struct Post {\n        uint256 id;\n        string imageHash;\n        string name;\n        string title;\n        string description;\n        uint256 amountRequested;\n        uint256 amountFunded;\n        address payable author;\n    }\n\n    // EVENTS:\n    // create event for emitting when a post is created\n    event PostCreated(\n        uint256 id,\n        string imageHash,\n        string name,\n        string title,\n        string description,\n        uint256 amountRequested,\n        uint256 amountFunded,\n        address payable author\n    );\n\n    event PostFunding(\n        uint256 id,\n        string imageHash,\n        string name,\n        string title,\n        string description,\n        uint256 amountRequested,\n        uint256 amountFunded,\n        address payable author\n    );\n\n    // EVENTS\n\n    // Modifier to check if the values are empty\n    modifier uploadFieldCheck(\n        string memory _modImageHash,\n        string memory _modName,\n        string memory _modTitle,\n        string memory _modDescription,\n        uint256 _modAmountRequested\n    ) {\n        require(bytes(_modImageHash).length > 0, \"Image hash cannot be empty\");\n        require(bytes(_modName).length > 0, \"Name cannot be empty\");\n        require(bytes(_modTitle).length > 0, \"Title cannot be empty\");\n        require(\n            bytes(_modDescription).length > 0,\n            \"Description cannot be empty\"\n        );\n        require(\n            _modAmountRequested > 0,\n            \"Amount requested must be greater than 0\"\n        );\n        require(msg.sender != address(0), \"Address cannot be empty\");\n        _;\n    }\n\n    modifier checkIfPostExists(uint256 _modId) {\n        require(_modId > 0 && _modId <= postCount, \"Post does not exist\");\n        _;\n    }\n\n    // Store fund me\n    function uploadPost(\n        string memory _imageHash,\n        string memory _name,\n        string memory _title,\n        string memory _description,\n        uint256 _amountRequested\n    )\n        public\n        uploadFieldCheck(\n            _imageHash,\n            _name,\n            _title,\n            _description,\n            _amountRequested\n        )\n    {\n        // increment post count\n        postCount++;\n\n        posts[postCount] = Post(\n            postCount,\n            _imageHash,\n            _name,\n            _title,\n            _description,\n            _amountRequested,\n            0,\n            msg.sender\n        );\n\n        // emit post creation event\n        emit PostCreated(\n            postCount,\n            _imageHash,\n            _name,\n            _title,\n            _description,\n            _amountRequested,\n            0,\n            msg.sender\n        );\n    }\n\n    // Initiate funding\n    function fundAPosting(uint256 _id) public payable checkIfPostExists(_id) {\n        // get post to fund\n        Post memory _post = posts[_id];\n\n        // Get the address of the post author\n        address payable _author = _post.author;\n\n        // pay the address of the post author\n        // msg.value is the amount of crypto that came in when the contract is initiated\n        address(_author).transfer(msg.value);\n\n        // increment amount funded\n        _post.amountFunded = _post.amountFunded + msg.value;\n\n        // Update the value of the posts\n        posts[_id] = _post;\n\n        // emit post fuunding event\n        emit PostFunding(\n            _id,\n            _post.imageHash,\n            _post.name,\n            _post.title,\n            _post.description,\n            _post.amountRequested,\n            _post.amountFunded,\n            _author\n        );\n    }\n}\n",
  "sourcePath": "/Users/user/Documents/blockchain/decFundMe/contracts/Decfundme.sol",
  "compiler": {
    "name": "solc",
    "version": "0.5.16+commit.9c3226ce.Emscripten.clang"
  },
  "schemaVersion": "3.4.2",
  "updatedAt": "2021-08-04T05:02:48.399Z",
  "networkType": "ethereum",
  "devdoc": {
    "methods": {}
  },
  "userdoc": {
    "methods": {}
  }
}